:020000040800F2
:10000000980A00209D0100086F190008C714000815
:100010006D190008D10300085720000800000000F7
:10002000000000000000000000000000731900083C
:10003000D3030008000000007119000875190008BA
:10004000B7010008B7010008B7010008B7010008B0
:10005000B7010008B7010008B7010008B7010008A0
:10006000B7010008B7010008B7010008B701000890
:10007000B7010008B7010008B7010008B701000880
:10008000B7010008B7010008B7010008B701000870
:10009000B7010008B7010008B7010008B701000860
:1000A000B7010008B7010008B7010008B701000850
:1000B000B7010008B7010008B7010008B701000840
:1000C000B7010008B7010008B7010008B701000830
:1000D000B7010008B7010008B7010008B701000820
:1000E000B7010008B7010008B7010008B701000810
:1000F000B7010008B7010008B7010008B701000800
:10010000B7010008B7010008B7010008B7010008EF
:10011000B7010008B7010008B7010008B7010008DF
:10012000B7010008B7010008B7010008B7010008CF
:10013000B7010008B7010008B7010008B7010008BF
:10014000B7010008B7010008B7010008B7010008AF
:10015000B7010008B7010008B7010008B70100089F
:10016000B7010008B7010008B7010008B70100088F
:10017000B7010008B7010008B7010008000000003F
:10018000B7010008B7010008DFF80CD000F07AF8DA
:1001900000480047E5200008980A002006488047EC
:1001A00006480047FEE7FEE7FEE7FEE7FEE7FEE75C
:1001B000FEE7FEE7FEE7FEE7251A000889010008D2
:1001C0002DE9F05F0546002092469B46884606468C
:1001D000814640241BE0284641464746224600F01F
:1001E00041F853465A46C01A914110D31146184659
:1001F000224600F028F82D1A67EB01084F462246E8
:100200000120002100F01FF817EB00094E41201ECD
:10021000A4F10104DFDC484631462A464346BDE8E6
:10022000F09F40EA01039B0703D009E008C9121FB1
:1002300008C0042AFAD203E011F8013B00F8013BA0
:10024000521EF9D27047202A04DB203A00FA02F14C
:10025000002070479140C2F1200320FA03F31943B4
:1002600090407047202A04DB203A21FA02F0002156
:10027000704721FA02F3D040C2F1200291400843B6
:1002800019467047064C074D06E0E06840F0010350
:1002900094E8070098471034AC42F6D3FFF778FF94
:1002A0007821000898210008464910B54A6822F4D0
:1002B00040324A604A6843681A434A6001684A68A3
:1002C00022F480724A6001684A68036942EA0322A4
:1002D0004A6001684A6822F040724A6001684A68D0
:1002E00083681A434A6001688A6822F400628A605F
:1002F00001688A68C3681A438A60816A6FF0706215
:10030000D14201688A6822F070628A6001688A6856
:100310000CD0836A1A438A6001688A6822F04052CE
:100320008A6001688A68C36A1A4301E022F0405279
:100330008A6001688A6822F002028A6001688A681D
:10034000037E42EA43028A6090F820100029016887
:100350004A680FD042F400624A6001684A6822F499
:1003600060424A6001684A68174C436A04EB4333B1
:100370001A4301E022F400624A600168CA6A22F46A
:100380007002CA620168CA6A838B104C04EB035383
:100390001A43CA6201688A6822F400728A6001689E
:1003A0008A6890F8303042EA43228A6001688A689D
:1003B00022F480628A6001688A68406942EA80208B
:1003C000886010BD0023014000E0FFFF0000F0FF47
:1003D000FEE7704778B50024009490F83C20012A8D
:1003E00019D0012280F83C200A6807230568092AF1
:1003F00013D9EE680A3A02EB420293409E43EE6044
:100400000B788A680A3B03EB43039A400368DD6874
:100410002A43DA6010E0022078BD2E6902EB420226
:1004200093409E432E610B788A6803EB43039A4006
:1004300003681D692A431A614A681F23072A13D2D9
:1004400005686E6B521E02EB820293409E436E6300
:100450000B790A885B1E92B203EB83039A40036810
:100460005D6B2A435A6327E005680D2A12D22E6B72
:10047000D21F02EB820293409E432E630B790A88BF
:10048000DB1F92B203EB83039A4003681D6B2A4380
:100490001A6311E0EE6A0D3A02EB820293409E432A
:1004A000EE620B790A880D3B92B203EB83039A400C
:1004B0000368DD6A2A43DA62164B0568144A9D42D6
:1004C00006D10D68122D03D1556845F4800555609D
:1004D00005689D4218D10B68102B01D0112B13D148
:1004E000536843F400035360096810290CD10A498A
:1004F0000A4A0968B1FBF2F101EB8101490000E011
:10050000491E00910029FBD180F83C40002078BDB5
:1005100000230140002001400C00002040420F0059
:1005200070B504004FF0000503D0206C002610B118
:1005300007E0012070BD204600F01CF8666484F8D6
:100540003C60206CC00610D4206C20F4885040F031
:10055000020020642046FFF7A7FE6664206C20F0AE
:10056000020040F00100206400E0012584F83C60B6
:10057000284670BD30B5154D0468002114480F227F
:10058000032387B0AC420DD1046844F48074046046
:100590000068009200F480700590CDE90131694651
:1005A0000C480FE00C4DAC420ED1046844F40074CA
:1005B00004600068009200F400700590CDE90131FC
:1005C0006946064800F076F807B030BD00200140CB
:1005D000443802400000024000210140000802406F
:1005E00070B54379012B1AD001264671022303719D
:1005F00005682C6840F6FE7393409C43D1E90031B6
:100600000B43934023432B6001680B68C024944044
:10061000A3430B60067100214171084670BD0220A2
:1006200070BD70B5040003D02079002510B105E03D
:10063000012070BD6571204600F008F8022020718D
:10064000256101202071002070BD000000B5006808
:100650000C4987B0884212D10B480021026842F051
:1006600000520260006800F00050059030200090B9
:100670000320CDE901016946044800F01BF807B0EA
:1006800000BD0000007400404038024000000240FD
:1006900070B5044600F0F2F80546601C02D004482C
:1006A0000078044400F0EAF8401BA042FAD370BD81
:1006B000000000202DE9F84FDFF87CB100224FF058
:1006C00001084FF0030A4FF00F090BF1040E00BFB1
:1006D0000B6808FA02F42340A3426ED14D68022D44
:1006E00001D0122D0ED1D50800EB850CDCF820507E
:1006F0005607F70E09FA07F6B5430E69BE402E43BA
:10070000CCF82060066855000F790AFA05FC07F05E
:10071000030726EA0C06AF40374307604E68012EF8
:1007200005D0022E03D0112E01D0122E0ED18668D4
:10073000CF6826EA0C06AF40374387604668A64379
:100740000C79C4F30014944034434460C6688C6848
:1007500026EA0C06AC403443C4604C68E40065D51E
:10076000364C256845F480452560246822F0030551
:1007700004F480440094324C2E19D6F808489507AA
:100780002F0F09FA07F5AC432E4DA84201D10025E1
:1007900024E02D4DA84201D101251FE02B4DA84298
:1007A00001D102251AE02A4DA84201D1032515E006
:1007B000284DA84202D1042510E037E0264DA8427A
:1007C00001D105250AE0254DA84201D1062505E005
:1007D000234DA84201D1072500E00825BD4025434F
:1007E000C6F80858DBF800405D464E689C43F603A7
:1007F00000D51C432C60DEF8004075464E689C43D3
:10080000B60300D51C432C600B4D08352C684E6890
:100810009C43F60200D51C432C60074D0C352C6818
:100820004E689C43B60200D51C432C60521C102A13
:10083000FFF44EAFBDE8F88F003C01404438024061
:100840000030014000000240000402400008024065
:10085000000C024000100240001402400018024048
:10086000001C0240426931EA020200D109048161A0
:1008700070470AB1816170470904FBE7014880684D
:10088000704700000000002070B504001BD094F8F1
:100890003D00002520B984F83C50204600F0AEF819
:1008A000242084F83D002068016821F001010160E6
:1008B00000F0C6FA4D4A6168914201D84C4900E007
:1008C0004C49884201D2012070BD4B492368B0FBDE
:1008D000F1F15E6826F03F060E435E606368934266
:1008E00006D94FF4967359434FF47A73B1FBF3F181
:1008F0002368491C1E6A26F03F063143196261686D
:10090000914210D84900401EB0FBF1F2521CC2F3D4
:100910000B02042A01D2042022E0B0FBF1F0401CBB
:10092000C0F30B001CE0A368F3B301EBC10202EBC0
:100930000116421EB2FBF6F2521C42F4804212052E
:1009400049D093B301EBC10202EB0111401EB0FB91
:10095000F1F0401CC0F30B0040F4804040F4004034
:100960002168CA694CF6FF739A431043C861D4E901
:100970000701084321680A6822F0C002104308609A
:10098000D4E9030101432068826848F2FF339A43A7
:1009900011438160D4E9050108432168CA6822F047
:1009A000FF021043C86001E00EE016E02068016815
:1009B00041F0010101602564202084F83D00256399
:1009C00084F83E50002070BD01EB4106421EB2FB90
:1009D000F6F2521CB3E70120C2E701EB4101401ED1
:1009E000B0FBF1F0401CC0F30B00B7E7A08601009C
:1009F00080841E0000093D0040420F00F0B5164FF4
:100A0000016812220123032504261448144C87B0E0
:100A1000B9420DD129028DE86E006946FFF74AFE02
:100A2000206840F400102060206800F4001010E0FE
:100A30000C4FB9420ED14FF440618DE86E0069460B
:100A4000FFF738FE206840F480002060206800F442
:100A50008000059007B0F0BD005400400004024043
:100A60004038024000580040024881680278114432
:100A700081607047000000200B4810B5016841F408
:100A800000710160016841F480610160016841F416
:100A900080710160032000F08BF8002000F006F860
:100AA00000F024F8002010BD003C024070B50D4D50
:100AB00004464FF47A712878B1FBF0F00A490968CE
:100AC000B1FBF0F000F01FFC48B9102C07D2002257
:100AD0002146501E00F04CF800206C6070BD0120D3
:100AE00070BD0000000000200C0000201F4808B569
:100AF000016841F480410160006800F4804000908A
:100B00001A48001F016841F080510160006800F040
:100B100080500090032000F04BF8002211466FF047
:100B20000B0000F025F8002211466FF00A0000F0DB
:100B30001FF8002211466FF0090000F019F800229A
:100B40001146501F00F014F800221146101F00F04B
:100B50000FF800221146901E00F00AF80022BDE8AE
:100B600008401146501E00F003B80000443802400F
:100B7000F0B40E4B1B680C46C3F30223C3F1070508
:100B8000042D00D90425191D072901D2002300E0F6
:100B9000DB1E012606FA05F1491E214099409E40C0
:100BA000761E16403143F0BC01F060BA0CED00E057
:100BB000064900F0070208684FF6FF03184040EAB4
:100BC0000220034A10430860704700000CED00E06B
:100BD0000000FA052DE9F0418AB0040004D094F831
:100BE000BD03002520B108E001200AB0BDE8F08176
:100BF00084F8BC53204600F05BF8032084F8BD0362
:100C0000206801F0E9F904F11001282288466846BD
:100C1000FFF707FB94E80F0001F0B6F80226D0BBFF
:100C20000021206801F000FA002001270FE000BF3A
:100C3000C0EBC00104EB810181F83D7001F83C0F6D
:100C4000C880CD708D60CD60401CC0B24D616168C0
:100C50008142EDD8002011E0C0EBC00104EB81011E
:100C600081F8FD5181F8FC0181F8FF51C1F804526F
:100C7000C1F80852401CC0B2C1F8105261688142EC
:100C8000EAD8282241466846FFF7CBFA94E80F00DD
:100C900001F0DCF810B184F8BD63A5E784F83850A2
:100CA00084F8BD73206801F0C5F800209DE70000BE
:100CB00000B5006887B0B0F1A04F1DD14FF4C0500F
:100CC00000900220019000200290032003900A204F
:100CD000049069460948FFF7EDFC0948016841F0B6
:100CE0008001016006481030016841F480410160D4
:100CF000006800F48040059007B000BD000002408D
:100D0000343802402DE9F0470E46050065D0DFF883
:100D10001481D8F80000F7B200F00F00B04207D2FB
:100D200088F80070D8F8000000F00F00B04254D1ED
:100D300028683D4C810712D5400703D5206840F450
:100D4000E05020602878000703D5206840F4604018
:100D500020602068A96820F0F0000843206028780F
:100D6000C0072DD0304968680839012812D0022800
:100D700013D0032811D00968890700292DDA2168CA
:100D800021F0030101432160FFF778FD814641F224
:100D9000883A0EE009688903EFE709688901ECE702
:100DA000FFF76CFDA0EB0901514502D90320BDE816
:100DB000F0872068696800F00C00B0EB810FEFD17C
:100DC000D8F80010404601F00F01B14207D9077072
:100DD000006800F00F00B04201D00120E7E728785A
:100DE000400705D52068E96820F4E05008432060FA
:100DF0002878000706D52068296920F4604040EA79
:100E0000C100206000F03CF82168084AC1F30311DA
:100E1000515CC840064908600020FFF747FE0020EB
:100E2000C5E70000003C024008380240602100088D
:100E30000C00002001480068704700000C000020F2
:100E40000448054900680968044AC1F38221515CDD
:100E5000C84070470C00002008380240702100088C
:100E60000448054900680968044AC1F34231515CED
:100E7000C84070470C00002008380240702100086C
:100E8000154810B5006810F00C02144813D041103A
:100E9000042A0FD0082A0ED10F4C241F2268236881
:100EA00002F03F025B0207D52068C0F38810A0FB68
:100EB000010106E0084610BD2168C1F38811A1FBBD
:100EC00000010023FFF77CF92168C1F30141491CAF
:100ED0004900B0FBF1F010BD083802400024F400D6
:100EE0002DE9F84F050076D02878DFF8F8B2BE4C2F
:100EF000C00749D0DBF800105846C1F38101012931
:100F000008D00068C0F3810002280AD1201D0068C3
:100F1000400206D52068800336D568680028E2D0F4
:100F200032E06868B0F5803F10D0B0F5A02F20689F
:100F300010D020F480302060206820F480202060D1
:100F40006868A0B1FFF79AFC06460CE0206840F400
:100F50008030F4E740F480202060F7E7FFF78EFC54
:100F6000801B642873D820688003F7D50CE0FFF756
:100F700085FC064605E000BFFFF780FC801B642867
:100F8000F0D820688003F7D42878DFF860828007E3
:100F90004FF000093ED5DBF80010584611F00C0F59
:100FA00009D00068C0F3810002280BD18D48001FD2
:100FB0000068400206D42068800715D5E86801283B
:100FC00009D111E0E868B8B10120C8F80000FFF7C6
:100FD00055FC064605E002E1FFF750FC801B0228A5
:100FE000C0D820688007F7D52068296920F0F8006C
:100FF00040EAC10020600DE0C8F80090FFF73EFC19
:10100000064604E0FFF73AFC801B02281FD8206840
:101010008007F7D42878000722D5724E7448696992
:101020006C3671B101210160FFF728FC074604E02E
:10103000FFF724FCC01B022809D830688007F7D5C9
:101040000EE0C0F80090FFF719FC074605E083E0CA
:10105000FFF714FCC01B02287ED830688007F7D445
:101060002878400768D5DFF87CA100270AF1380A04
:10107000DAF80000C0000BD4DAF8001041F080511B
:10108000CAF80010DAF80000012700F08050009044
:10109000584E3068C00510D4306840F4807030601D
:1010A000FFF7ECFB009005E0FFF7E8FB0099401A22
:1010B000022851D83068C005F6D54A4EA86868366F
:1010C00001280FD00528306810D020F001003060D2
:1010D000306820F004003060A868B8B1FFF7CEFB9C
:1010E00000900FE0306840F00100F4E740F00400A9
:1010F0003060F7E7FFF7C2FB0099411A41F28830F0
:10110000814264D830688007F4D50EE0FFF7B6FB63
:10111000009007E0FFF7B2FB0099411A41F28830D6
:10112000814254D830688007F4D42FB1DAF8001027
:1011300021F08051CAF80010A869C0B3DBF8001094
:10114000C1F3810102294AD00228484607D0C8F8D5
:101150006000FFF793FB00E039E005463AE04746C0
:10116000C8F86000FFF78AFB064604E0FFF786FB3D
:10117000801B02282BD820688001F7D4D5E907010D
:101180000843A96A1C4A490802EB01416A6A41EA1C
:101190008211084395F82C1040EA01611148001FA4
:1011A000016001203866FFF769FB054605E014E0A1
:1011B000FFF764FB401B022809D820688001F7D59F
:1011C0000BE000BFFFF75AFB401B022802D90320A7
:1011D000BDE8F88F20688001F4D40020F8E70120F2
:1011E000F6E700000838024000380240000047429D
:1011F000800E4742007000400000FFFF70B5040001
:1012000005D00025A56294F8510010B106E0012038
:1012100070BD84F85050204600F030F8022084F869
:1012200051002068016821F040010160D4E901010A
:101230000843D4E903121143084361690843218B31
:1012400001F400710843E1690843216A0843A16A77
:10125000084321680860A069042101EA1040616A1E
:101260000843216848602068C16921F40061C161B8
:101270006565012084F85100002070BD70B5174EDF
:1012800002680021022303240525154886B0B242D6
:101290000AD1144A166846F480561660126802F4A1
:1012A0008052059238220EE00F4EB24213D10D4A01
:1012B000121F166846F480461660126802F48042D7
:1012C00005924FF4704202AE86E832006946CDE9DD
:1012D0000023FFF7EFF906B070BD000000300140B9
:1012E0000004024044380240003800404FF0E02142
:1012F0000428086903D020F004000861704740F01A
:101300000400FAE7704710B5401EB0F1807F01D3AA
:10131000012010BD4FF0E02460610F21601700F044
:10132000A5FE0020A06107202061002010BD10B59F
:10133000FFF7E8FF10BD70B5040004D094F8390041
:10134000002510B106E0012070BD84F83850204619
:1013500000F022F8242084F839002068C16821F4C4
:101360000051C160204600F087FB2068016921F42C
:10137000904101612068416921F02A0141612068A2
:10138000C16841F40051C160E563202084F8390050
:1013900084F83A00002070BD30B50068164D022177
:1013A00001220323072487B0A8420ED11348056801
:1013B00045F010050560006800F010000590580227
:1013C0008DE81F0069460E4812E00E4DA84211D16B
:1013D0000A48001F056845F480250560006800F490
:1013E000802005904FF440708DE81F006946064844
:1013F000FFF760F907B030BD0010014044380240EB
:101400000000024000480040000C02402DE9F84373
:10141000044690F839001F4616460D46202850D144
:10142000A5B19EB194F8380001284AD0012084F873
:1014300038004FF00008C4F83C80212084F83900BF
:10144000FFF71CFAA6848146E68426E00120BDE869
:10145000F883E08C401EE084A0684B46B0F5805FC6
:101460004FF000024FF080012046009703D000F0BB
:1014700059FCE8B90DE000F055FCC8B9288821688E
:10148000C0F308004860206908B16D1C05E0AD1C80
:1014900003E0216815F8010B4860E08C0028D8D1E2
:1014A0004B46002240212046009700F03BFC08B14B
:1014B0000320CCE7202084F8390084F8388000200D
:1014C000C5E70220C3E7FEE77FB5164814490024AC
:1014D00001604FF48031C0E901140461047680F8A2
:1014E00020401149C0E90A140125C561C46080F893
:1014F00030404561FFF714F818B149210BA000F006
:10150000ABFDCDE90045694606480294FEF762FF4F
:10151000002803D0532105A000F09EFD7FBD0000F0
:1015200000200140140000200100000F2E2E2F5338
:1015300072632F6164632E63000000007FB516485C
:101540001449002401604FF48031C0E901140461A2
:10155000047680F820401149C0E90A140125C561CC
:10156000C46080F830404561FEF7DAFF18B16C21A5
:101570000BA000F071FD0A20CDE900056946029438
:101580000548FEF727FF002803D0762104A000F0CD
:1015900063FD7FBD002101405C0000200100000FC1
:1015A0002E2E2F5372632F6164632E6300000000A0
:1015B0001CB51349114808600846FFF732F818B106
:1015C0003D2110A000F048FD00200090024601904F
:1015D00069460B48FFF704F818B1462109A000F04E
:1015E0003BFD102269460648FEF7FAFF002803D0AB
:1015F0004D2104A000F030FD1CBD0000007400402F
:10160000A40000202E2E2F5372632F6461632E637B
:10161000000000002DE9F04F3F4887B0002401682A
:1016200041F004010160016801F0040105910168C5
:1016300041F080010160016801F0800105910168BD
:1016400041F001010160016801F0010105910168AB
:1016500041F002010160016801F002010591016899
:1016600041F0080101600068DFF8B09000F0080068
:1016700048F280050590002229464846FFF7F9F810
:10168000DFF89CA040F2FF47002239465046FFF7A2
:10169000F0F8DFF890B04FF4E05800224146584689
:1016A000FFF7E7F8002240211F48FFF7E2F8402645
:1016B000CDE90064694648460294FEF7FBFF0095B9
:1016C0000125CDE90154694648460394FEF7F2FF2F
:1016D0000097CDE90154694650460394FEF7EAFFAE
:1016E000E802CDE90004694650460294FEF7E2FFA5
:1016F000CDF80080CDE90154694658460394FEF7C1
:10170000D9FF0096CDE90154694607480394FEF7D6
:10171000D1FF07B0BDE8F08F303802400000024032
:10172000000C024000080240000402400E4810B5C0
:101730000C4901600D49416000214FF480428160F5
:10174000C0E9031241618161C1610162FFF79CF848
:10175000002805D0BDE81040432105A000F07CBC66
:1017600010BD000000540040B8000020A086010019
:101770002E2E2F5372632F6932632E6300000000F8
:101780000E4810B50C4901600D49416000214FF42D
:1017900080428160C0E9031241618161C1610162DF
:1017A000FFF772F8002805D0BDE81040562105A0CB
:1017B00000F052BC10BD0000005800400C01002099
:1017C000A08601002E2E2F5372632F6932632E6381
:1017D00000000000104810B50E4901604FF48271FE
:1017E000416000218160C1604FF400720161C0E975
:1017F0000512C1610162416281620A21C162FFF783
:10180000FDFC002805D0BDE81040462103A000F0F3
:1018100023BC10BD00300140600100202E2E2F534C
:1018200072632F7370692E63000000000F4810B5BB
:101830000D4901604FF48271416000218160C160F7
:10184000016141618161C1610162416281620A217C
:10185000C162FFF7D3FC002805D0BDE810405C2131
:1018600003A000F0F9BB10BD00380040B801002013
:101870002E2E2F5372632F7370692E6300000000A9
:101880000D4810B50B4901604FF4E1314160002172
:1018900081600C22C160C0E904128161C161FFF75F
:1018A0004AFD002805D0BDE81040432103A000F008
:1018B000D3BB10BD00100140100200202E2E2F536C
:1018C00072632F75736172742E6300000D4810B53A
:1018D0000B4901604FF4E1314160002181600C222D
:1018E000C160C0E904128161C161FFF724FD0028D5
:1018F00005D0BDE81040562103A000F0ADBB10BDDF
:1019000000480040500200202E2E2F5372632F7586
:10191000736172742E6300000E4810B54FF0A04141
:1019200001600421416002220021C0E90321C0E9D5
:101930000512C16101624162C1620163FFF74AF9A8
:10194000002805D0BDE81040452103A000F084BB6D
:1019500010BD0000900200202E2E2F5372632F75B1
:1019600073625F6F74672E6300000000FEE77047CC
:101970007047704710B5FFF777F8BDE81040FFF7E4
:10198000D6BC000030B5254893B00025016841F071
:1019900080510160006800F080501190204801687B
:1019A00041F4804101600068022400F480401190FD
:1019B00001200090000401908001CDE90640042040
:1019C0000890A820CDE9090407200B906846FFF78E
:1019D00087FA00B1FEE70CA90F2081E831004FF42F
:1019E000A0500F904FF48050109005210CA8FFF7E5
:1019F00089F900B1FEE7FFF71DFA4FF47A71B0FBE9
:101A0000F1F0FFF780FC0420FFF770FC0022114684
:101A1000501EFFF7ADF813B030BD00004038024053
:101A2000007000401048016841F4700101600F48E7
:101A3000016841F0010101600C4A00210832116087
:101A400002680B4B1A400260031D0A4A1A600268C2
:101A500022F48022026005480C30016002495806D9
:101A6000803908607047000088ED00E000380240CF
:101A7000FFFFF6FE103000242DE9F0410446006817
:101A80000169E26821F44051114301612169A068B4
:101A9000E26908436169114322680843D16849F249
:101AA0000C6399430143D16020684169A26921F424
:101AB000407111434161E2696425B2F5004F9748D6
:101AC000974922684FF032083FD08A4201D08242C3
:101AD0007CD1FFF7C5F900EBC00101EB0010616894
:101AE0008900B0FBF1F6FFF7BBF900EBC00101EB99
:101AF000001061688900B0FBF1F0B0FBF5F06FF009
:101B00001801484306EB800108EB0110B0FBF5F02B
:101B100000F0F006FFF7A4F900EBC00101EB0010A4
:101B200061688900B0FBF1F0B0FBF5F006EB001640
:101B3000FFF796F900EBC00101EB00106168890026
:101B4000B0FBF1F7FFF78CF9D2E08A4201D0824274
:101B50003DD1FFF785F900EBC00101EB0010616892
:101B60004900B0FBF1F0B0FBF5F00601FFF778F9A2
:101B700000EBC00101EB001061684900B0FBF1F718
:101B8000FFF76EF900EBC00101EB0010616849003E
:101B9000B0FBF1F0B0FBF5F06FF01801484307EB34
:101BA000800108EBC100B0FBF5F000F0F80006EB97
:101BB0004006FFF755F900EBC00101EB001061682A
:101BC0004900B0FBF1F7FFF74BF93CE055E0FFF7B8
:101BD00037F900EBC00101EB001061684900B0FB70
:101BE000F1F0B0FBF5F00601FFF72AF900EBC001B8
:101BF00001EB001061684900B0FBF1F7FFF720F935
:101C000000EBC00101EB001061684900B0FBF1F08E
:101C1000B0FBF5F06FF01801484307EB800108EBCB
:101C2000C100B0FBF5F000F0F80006EB4006FFF74E
:101C300007F900EBC00101EB001061684900B0FB3F
:101C4000F1F7FFF7FDF800EBC00101EB0010616850
:101C50004900B0FBF1F0B0FBF5F06FF0180148431C
:101C600007EB800108EBC100B0FBF5F000F00700C6
:101C7000216830448860BDE8F081FFF7E1F800EBAF
:101C8000C00101EB001061688900B0FBF1F6FFF7BD
:101C9000D7F800EBC00101EB001061688900B0FBD0
:101CA000F1F0B0FBF5F06FF01801484306EB80014E
:101CB00008EB0110B0FBF5F000F0F006FFF7C0F8FC
:101CC00000EBC00101EB001061688900B0FBF1F08E
:101CD000B0FBF5F006EB0016FFF7B2F800EBC00121
:101CE00001EB001061688900B0FBF1F7FFF7A8F87D
:101CF00000EBC00101EB001061688900B0FBF1F05E
:101D0000B0FBF5F06FF01801484307EB800108EBDA
:101D10000110B0FBF5F000F00F00A9E7001401403E
:101D2000001001402DE9F041984617460E46044642
:101D3000069D1DE0681C1BD02DB1FEF79FFDA0EB9A
:101D40000800A84214D92068C16821F4D071C1608C
:101D50002068416921F001014161202084F83900A7
:101D600084F83A00002084F838000320BDE8F081B0
:101D70002068006836EA000004D00020B842D9D0BC
:101D80000020F3E70120F9E770B5044606990A9EA2
:101D9000049D0D98012916D0E06840F04000E060F5
:101DA000204600F02BF8A16B1EB321F48031A16313
:101DB000012D07D1A16841F00601A160A16841F0A1
:101DC0002001A16070BDA16B21F48031A163E168A5
:101DD000094A1140E160E16821F44011E160012805
:101DE00003D1E06840F48010E060204600F006F87F
:101DF000DEE741F48031DAE7BFFFBDFF01220C4985
:101E000002E0521C8A420BD80369002BF9DA0269FE
:101E100042F001020261012204E0521C8A4201D90F
:101E2000032070470369DB07F7D1002070470000EB
:101E3000400D030010B5D0F8041841F00201C0F8BD
:101E400004180320FEF724FC002010BD2DE9F04FFC
:101E50000025DDE90BCB0E460446DDF84090099FD6
:101E60002846294604EB8002C2F80411401C0F28C2
:101E7000F8D3B9F1000F204618D0006820F4001202
:101E80002260A06B40F40022A26308468846C4F892
:101E9000000ED4F800182046C4F80018BCF1010F59
:101EA00010D0D0F8001841F0030110E0806B40F42E
:101EB0000012A263A06B20F40022A263A06B20F4A6
:101EC0008022E1E7D0F800180BB141F00101C0F821
:101ED0000018102100F096F800B10125204600F00E
:101EE00081F800B101254046C4F81088C4F8148870
:101EF000C4F81C8800214FF000634FF090484FF663
:101F00007F3A14E004EB4112D2F800C9BCF1000F93
:101F100006DA11B1C2F8008904E0C4F8003901E022
:101F2000C2F80009C2F81009C2F808A9491C8E427B
:101F3000E8D8002115E000BF04EB4112D2F800CB35
:101F4000BCF1000F06DA11B1C2F8008B04E0C4F84E
:101F5000003B01E0C2F8000BC2F8100BC2F808AB5E
:101F6000491C8E42E8D8D4F8101821F4807221461A
:101F7000C4F81028012F08D1134AC1F83028D1F82D
:101F80003018124A1143C4F83018A0616FF0804035
:101F900060611FB9A06940F01000A061A0690C4900
:101FA0000843A061BBF1000F03D0A06940F0080016
:101FB000A061B9F1010F03D1A06906490843A061EE
:101FC0002846BDE8F08F00000001800003000100FA
:101FD00000383C8004000040816821F001018160EC
:101FE00000207047002110220261054A491C9142DD
:101FF00001D9032070470369DB06F7D4002070473E
:10200000400D03000022202343EA811101610549AC
:10201000521C8A4201D90320704703699B06F7D4FA
:1020200000207047400D030010B5C26822F0C04286
:10203000C260012902D029B1012010BDC16841F060
:10204000005102E0C16841F08041C1603220FEF7DA
:102050001FFB002010BDFEE7FEE70000014A024919
:1020600000F023B8CD200008100000200907090E59
:10207000002804DB00F1E02080F80014704700F035
:102080000F0000F1E02080F8141D704702E008C83E
:10209000121F08C1002AFAD170477047002001E0E2
:1020A00001C1121F002AFBD170472DE9F0411646ED
:1020B0000F460446002503E03946B047641C6D1CFA
:1020C00020780028F8D12846BDE8F08113B54FF6F6
:1020D000FF73012269460248FFF798F900981CBD7A
:1020E00010020020FEF7C8FCFFF74CFCFFF792FA45
:1020F000FFF7EAF9FFF722FAFFF75AFAFFF716FBA4
:10210000FFF73EFBFFF766FBFFF790FBFFF7B8FB1F
:10211000FFF7DCFBFFF700FC09A0FFF79FFF0B4D6B
:102120004FF480644FF47A7621462846FEF79AFBF6
:1021300007A0FFF793FF3046FEF7AAFAF4E7000086
:10214000696E6974206F6B210A000000000C024068
:1021500053544D33324634303756475436210A00F3
:102160000000000000000000010203040607080947
:102170000000000001020304982100080000002074
:10218000140000008C200008AC210008140000207E
:10219000840A00009C2000080100000010000000DC
:0C21A000000000000024F400000000001B
:040000050800018965
:00000001FF
